:100000000C9464000C948C000C948C000C948C0068
:100010000C948C000C948C000C948C000C948C0030
:100020000C948C000C948C000C948C000C948C0020
:100030000C948C000C948C000C948C000C948C0010
:100040000C947A070C948C000C94670A0C94990A0F
:100050000C948C000C948C000C948C000C948C00F0
:100060000C944D060C948C00000000080002010066
:100070000003040700000000000000000102040863
:100080001020408001020408102001020408102002
:10009000040404040404040402020202020203032E
:1000A00003030303000000002300260029000000D2
:1000B0000000250028002B0000000000240027007D
:1000C0002A0002016B05C90A11241FBECFEFD8E038
:1000D000DEBFCDBF11E0A0E0B1E0ECE4FFE102C083
:1000E00005900D92A433B107D9F722E0A4E3B1E063
:1000F00001C01D92A93EB207E1F710E0C8ECD0E0C4
:1001000004C02297FE010E94A00FC23CD107C9F78C
:100110000E940D0B0C94A40F0C94000026E040E804
:1001200055E260E070E08CE492E00E94050A40E055
:1001300050E062E082E791E00E94620464EC79E0C2
:1001400086E391E00E9435016BE980913401909142
:1001500035010E94440261E08091340190913501A3
:100160000E94170264E080913401909135010C9453
:1001700017028F929F92AF92BF92CF92DF92EF922F
:10018000FF9280917B0190917C01019719F468EEB8
:1001900073E002C060ED77E0882777FD8095982FA7
:1001A0000E94F30782E791E00E9482044B015C0108
:1001B00082E791E00E948E046B017C0121E030E037
:1001C000B501A4018CE492E00E94070D60E071E0AB
:1001D0008CE492E00E945A0B21E030E0B701A601C6
:1001E0008CE492E00E94070D64E271E08CE492E0FE
:1001F000FF90EF90DF90CF90BF90AF909F908F9047
:100200000C94670B60E686E391E00E94D50161E003
:1002100086E391E00E948001909335018093340140
:1002200008958CE492E00E942209892BB1F00E948B
:10023000B9008CE492E00E943B09813371F461E0E3
:1002400080913401909135010E9417026FEF8091E7
:100250003401909135010C944402089520E030E07F
:1002600040E050E0CB960C945802EF92FF920F932F
:100270001F93CF93DF938C017B0183E891E00E9471
:100280003105E801EB96CE010E94C502F801F28229
:10029000E182B70180E090E00E940C0EAB01BC014E
:1002A000CE010E94F20210E020E030E040E050E099
:1002B000612FCE010E9458021F5F1031A9F7DF9114
:1002C000CF911F910F91FF90EF9008959A01CB96D7
:1002D000211540E1340728F020E030E040E050E113
:1002E00002C040E050E00C945802411102C00C944E
:1002F0002E0120E030E040E050E1CB960C94580213
:10030000CF939C01653008F044C06150C6E0462F91
:1003100050E0FC01C69FE00DF11D11248085811184
:100320002EC06087CA010196C89FF001C99FF00DD9
:100330001124E20FF31F31832083662351F06130D3
:1003400061F0623071F0633079F476E0A5E0B7E0F7
:100350000BC079E0AAE0B8E007C07CE0ABE0BDE00C
:1003600003C073E0A4E0B2E086E0849FF001859FC3
:10037000F00D1124E20FF31FB383A483758366E0AD
:10038000649FC001659F900D11240396820F931FF7
:1003900002C080E090E0CF910895FC0114821382A6
:1003A00015821282118210820895BF92CF92DF923D
:1003B000EF92FF920F931F93CF93DF931F92CDB7CE
:1003C000DEB78C01B62E7C0183E0E80EF11C6801DB
:1003D000EBE1CE0ED11CC7010E94CD01F6E0EF0E7D
:1003E000F11CEC14FD04B9F7F80117A212A616A22D
:1003F00015A217AA12AE16AA15AA60E4C801CB96D8
:100400000E945502F801B0826B2DCE0101960E9428
:1004100055028981F80183AF0F90DF91CF911F9131
:100420000F91FF90EF90DF90CF90BF900895CF9302
:10043000DF93EC01623061F06430B9F0613009F5AE
:100440006A818B819C810E942E0141E0698107C0F5
:1004500069818B819C810E942E0141E06A818B81A0
:100460009C81DF91CF910C94750169818B819C8176
:100470000E942E016A818B819C81DF91CF910C9427
:100480002E01DF91CF91089520E1629FA0011124F8
:10049000FC016081838194810C946601DC01ED9103
:1004A000FC910190F081E02D0994FC016083089596
:1004B000FF920F931F93CF93DF9300D0CDB7DEB79A
:1004C000162FF52E032FFC01608183E891E02A832B
:1004D00049830E944B05E0918301F091840184E0FF
:1004E000189FB00111246A5F7F4F0190F081E02DC9
:1004F00083E891E009954981642F7F2D83E891E09D
:100500000E944E026F2D70E083E891E00E944E023F
:100510002A81622F702F83E891E00E944E02602FA3
:1005200070E083E891E00E944E0283E891E00F9032
:100530000F90DF91CF911F910F91FF900C94680560
:100540001F93CF93DF931F92CDB7DEB7162FFC0119
:10055000608183E891E049830E944B05612F83E825
:1005600091E00E94F2044981642F83E891E00E94A7
:10057000F20483E891E00F90DF91CF911F910C94EA
:10058000680540E060E00C94A002CF93DF93EC019B
:1005900083E891E00E943105CE01DF91CF910C9468
:1005A000C1021F93CF93DF93EC01162F688183E87C
:1005B00091E00E944B05612F83E891E00E94F204D4
:1005C00083E891E00E94680541E0688183E891E05A
:1005D0000E94480583E891E00E94A204DF91CF9138
:1005E0001F910895CF92DF92EF92FF921F93CF93C6
:1005F000DF93EC01CB01BA0126E636E646E65FE37F
:100600000E94150F9B01AC0160E27CEB8EEB95E440
:100610000E94730D20E030E040E85FE30E940A0D85
:1006200020E030E040E05FE30E940B0D0E94490EA5
:100630006B017C0160E0CE010E94D102182F482F8F
:100640004F76406160E0CE010E94A002C701B60172
:100650000E94E00D462F6EEFCE010E94A002412FB6
:1006600060E0CE010E94A00265E070E080E090E0D2
:100670000E94F307412F416A60E0CE01DF91CF91E4
:100680001F91FF90EF90DF90CF900C94A002CF933A
:10069000DF93EC010E94C407685B7B4081099109EC
:1006A0006D877E878F87988BDF91CF9108952F92EA
:1006B0003F924F925F926F927F928F929F92AF92F2
:1006C000BF92CF92DF92EF92FF920F931F93CF933F
:1006D000DF931F92CDB7DEB71C010E94C407F10162
:1006E00085849684A784B0882B013C01481859085A
:1006F0006A087B08218532852130310539F447EEBF
:10070000842E43E0942EA12CB12C06C03FEC832E06
:1007100037E0932EA12CB12C481459046A047B04B1
:1007200008F4BCC0F101658776878787908B80E0ED
:1007300090E0A0ECBFE780839183A283B38384839E
:100740009583A683B78360E080850E94C30861E03B
:10075000F10180850E948A08F101818592850197C7
:1007600039F462E170E080E090E00E94F30704C099
:1007700080E293E00E941B0860E0F10180850E9406
:100780008A0861E0F10180850E94C3082DEF922E56
:100790000E94D007762EF92DF1708F2EAF2EBB243C
:1007A000A7FCB0940E94D00767196B3518F081E060
:1007B00090E02FC0F101808569830E94F90869816A
:1007C0008A159B0579F397FC07C0882029F0000F54
:1007D000111F6F3108F00160FFE19F1639F08FE3C0
:1007E000981205C0780100E010E001C06801939400
:1007F000E0E59E12CDCF6D2D7727AF2CB12C8E2D3D
:100800008C0D860F8F0D90E08017910731F082E0FC
:1008100090E0F1019487838741C0F1018185928541
:10082000019779F480E090E00E940C0EF10164835E
:10083000758386839783B50180E090E00E940C0E5B
:1008400025C0B60180E090E00E940C0E2DEC3CEC3F
:100850004CEC5DE30E94150FF10164837583868380
:100860009783C70197FF05C09F77EE24FF24E81AFE
:10087000F90AB701882777FD8095982F0E940E0E00
:100880002DEC3CEC4CEC5DE30E94150FF101608314
:10089000718382839383F101148613860F90DF9115
:1008A000CF911F910F91FF90EF90DF90CF90BF906D
:1008B000AF909F908F907F906F905F904F903F9000
:1008C0002F9008950F931F93CF93DF93EC018A012C
:1008D00068875A8749870E944703012B71F482E099
:1008E00090E09A878987CE010E9457038B859C856B
:1008F0008130910511F49A878987DF91CF911F91FB
:100900000F910895CF93DF93EC010E9457036C8100
:100910007D818E819F81DF91CF910895CF93DF9369
:10092000EC010E945703688179818A819B81DF9164
:10093000CF9108958091B30190E02091B401821B82
:10094000910908952091B4018091B301281750F4C2
:10095000E22FF0E0EB54FE4F808190E02F5F209378
:10096000B40108958FEF9FEF0895E091B401809155
:10097000B301E81730F4F0E0EB54FE4F808190E0D3
:1009800008958FEF9FEF08950895CF92DF92EF9231
:10099000FF920F931F93CF93DF937C01CB018A01CA
:1009A00020918F01222389F0EB016B01C40ED51E2B
:1009B000CC15DD0569F06991D701ED91FC910190AD
:1009C000F081E02DC7010995F3CF642F0E94240622
:1009D000C801DF91CF911F910F91FF90EF90DF90B1
:1009E000CF900895CF93DF931F92CDB7DEB7698381
:1009F00020918F012223D1F020919001203240F0EC
:100A000021E030E0FC013383228380E090E015C0D8
:100A100080919101E82FF0E0EE56FE4F998190838E
:100A20008F5F809391018093900105C061E0CE01BA
:100A300001960E94240681E090E00F90DF91CF9113
:100A40000895FC011382128248EE53E060E070E0EA
:100A5000448355836683778386E091E09183808326
:100A600008951092B4011092B30110929101109266
:100A700090010C946F05862F413208F040E265EB3F
:100A800071E00E948D051092B4018093B301089526
:100A900021E00C943B0581E080938F016093B201CB
:100AA000109291011092900108950F93062F21E06A
:100AB0004091900162E971E08091B2010E94D105FC
:100AC000109291011092900110928F010F91089550
:100AD00061E00C94550583E891E00C942105109297
:100AE000420281E08093400210923F0261E082E185
:100AF0000E94C30861E083E10E94C308E9EBF0E0D3
:100B000080818E7F808380818D7F808388E4809345
:100B1000B80085E48093BC000895413208F03FC0DE
:100B2000909142029111FCCF91E090934202209368
:100B300040022FEF2093D50110921A02240F209328
:100B400019029093410290914102880F892B809362
:100B5000410280913F02813041F410923F02809126
:100B600041028093BB0085EC01C085EE8093BC0000
:100B7000809142028130E1F380911A02841710F4CF
:100B800040911A022BE132E0FB01D9018A2F821B2E
:100B9000841718F48D918193F9CF842F089580E004
:100BA00008950F93413208F046C09091420291118E
:100BB000FCCF92E090934202009340029FEF90930B
:100BC000D50110921A0240931902FB016BE172E009
:100BD000DB019A2F961B941718F491919D93F9CFEE
:100BE0001092410290914102880F892B809341021B
:100BF00080913F02813041F410923F028091410286
:100C00008093BB0085EC01C085EE8093BC0022235D
:100C100021F0809142028230E1F38091D5018F3F33
:100C200061F08091D501803251F08091D5018033FF
:100C300041F483E007C081E005C080E003C082E0AA
:100C400001C084E00F910895613298F4209142022E
:100C5000243089F46093F701FC0189EF91E0DC0115
:100C60002A2F281B261718F421912D93F9CF80E005
:100C7000089581E0089582E0089585ED8093BC0099
:100C80008091BC0084FDFCCF10924202089585EC57
:100C90008093BC001092420208951F920F920FB6EB
:100CA0000F9211242F933F934F935F936F937F93F2
:100CB0008F939F93AF93BF93EF93FF938091B9006E
:100CC000887F803609F49CC068F5883209F45BC0DF
:100CD00090F4803109F454C038F4882309F4F5C045
:100CE000883009F44DC0F5C0883109F44CC0803219
:100CF00009F45DC0EEC0803409F468C048F4803364
:100D000009F455C0883309F0E4C08093D501A8C028
:100D1000803509F44FC0883509F45DC0883409F086
:100D2000D8C0D5C0883909F4C6C0A8F4883709F4FA
:100D300067C038F4883609F463C0803709F460C0AE
:100D4000C8C0883809F4B7C0803909F45FC080385A
:100D500009F0BFC05BC0803B09F485C038F4803A1D
:100D600009F466C0883A09F47EC0B3C0803C09F437
:100D7000A6C0883C09F4A3C0883B09F489C0A9C077
:100D80008091410210C090911A0280911902981727
:100D900070F5E0911A0281E08E0F80931A02F0E064
:100DA000E55EFD4F80818093BB0085EC85C080931C
:100DB000D5018DC0E0911A0281E08E0F80931A0256
:100DC0008091BB00F0E0E55EFD4F808390911A02B8
:100DD000809119026DC0E0911A0281E08E0F80931C
:100DE0001A028091BB00F0E0E55EFD4F80838091A8
:100DF000400281116CC081E080933F0284EA60C0B0
:100E000083E0809342021092D601CFCF8091D60129
:100E1000803208F050C0E091D60181E08E0F8093BF
:100E2000D6018091BB00F0E0E952FE4F8083BDCF38
:100E30008091D601803230F4E091D601F0E0E952A1
:100E4000FE4F10820E943D066091D60170E0E09155
:100E50003B02F0913C0287ED91E009951092D6019A
:100E60000E94470636C084E0809342021092F80147
:100E70001092F701E0913D02F0913E0209958091B8
:100E8000F701811105C081E08093F7011092F9010B
:100E9000E091F80181E08E0F8093F801F0E0E750D7
:100EA000FE4F80818093BB009091F8018091F70103
:100EB000981708F47ACF85E88093BC000AC085ECC7
:100EC0008093BC001092420204C01092D5010E948F
:100ED0003D06FF91EF91BF91AF919F918F917F91CF
:100EE0006F915F914F913F912F910F900FBE0F9097
:100EF0001F9018951F920F920FB60F9211242F93E7
:100F00003F938F939F93AF93BF93809144029091AF
:100F10004502A0914602B09147023091430223E07E
:100F2000230F2D3720F40196A11DB11D05C026E821
:100F3000230F0296A11DB11D20934302809344020A
:100F400090934502A0934602B093470280914802D5
:100F500090914902A0914A02B0914B020196A11DC5
:100F6000B11D8093480290934902A0934A02B09326
:100F70004B02BF91AF919F918F913F912F910F9015
:100F80000FBE0F901F9018952FB7F89460914402F0
:100F90007091450280914602909147022FBF0895BB
:100FA0003FB7F8948091480290914902A0914A027B
:100FB000B0914B0226B5A89B05C02F3F19F00196B2
:100FC000A11DB11D3FBF6627782F892F9A2F620F71
:100FD000711D811D911D42E0660F771F881F991FAB
:100FE0004A95D1F70895CF92DF92EF92FF92CF9377
:100FF000DF936B017C010E94D007EB01C114D10487
:10100000E104F10489F00E94090D0E94D0076C1BD5
:101010007D0B683E734090F381E0C81AD108E10867
:10102000F108C851DC4FEACFDF91CF91FF90EF90EC
:10103000DF90CF9008958230910538F0880F991F86
:10104000880F991F05970197F1F70895789484B553
:10105000826084BD84B5816084BD85B5826085BDB4
:1010600085B5816085BDEEE6F0E08081816080839A
:10107000E1E8F0E01082808182608083808181607D
:101080008083E0E8F0E0808181608083E1EBF0E044
:10109000808184608083E0EBF0E0808181608083E8
:1010A000EAE7F0E0808184608083808182608083D1
:1010B0008081816080838081806880831092C100FC
:1010C0000895833081F028F4813099F08230A1F0C6
:1010D00008958730A9F08830B9F08430D1F4809138
:1010E00080008F7D03C0809180008F778093800087
:1010F000089584B58F7702C084B58F7D84BD08952F
:101100008091B0008F7703C08091B0008F7D809375
:10111000B0000895CF93DF9390E0FC01E458FF4FB7
:101120002491FC01E057FF4F8491882349F190E01E
:10113000880F991FFC01E854FF4FA591B491825587
:101140009F4FFC01C591D4919FB7611108C0F894DD
:101150008C91209582238C93888182230AC06230EF
:1011600051F4F8948C91322F309583238C9388819D
:10117000822B888304C0F8948C91822B8C939FBF20
:10118000DF91CF9108950F931F93CF93DF931F9219
:10119000CDB7DEB7282F30E0F901E859FF4F849131
:1011A000F901E458FF4F1491F901E057FF4F049102
:1011B0000023C9F0882321F069830E9461086981B6
:1011C000E02FF0E0EE0FFF1FE255FF4FA591B49125
:1011D0009FB7F8948C91611103C01095812301C0D1
:1011E000812B8C939FBF0F90DF91CF911F910F9117
:1011F0000895CF93DF93282F30E0F901E859FF4F8E
:101200008491F901E458FF4FD491F901E057FF4F61
:10121000C491CC2391F081110E946108EC2FF0E081
:10122000EE0FFF1FEC55FF4FA591B4912C912D238C
:1012300081E090E021F480E002C080E090E0DF9166
:10124000CF910895FC01818D228D90E0805C9F4FAD
:10125000821B91098F7399270895FC01918D828DCE
:10126000981731F0828DE80FF11D858D90E008957B
:101270008FEF9FEF0895FC01918D828D981761F09B
:10128000828DDF01A80FB11D5D968C91928D9F5FBD
:101290009F73928F90E008958FEF9FEF08958FEBEB
:1012A0009AE0892B49F080E090E0892B29F00E9498
:1012B000BF0A81110C9400000895FC01848DDF01A8
:1012C000A80FB11DA35ABF4F2C91848D90E00196B9
:1012D0008F739927848FA689B7892C93A089B189A8
:1012E0008C9180648C93938D848D981306C00288B2
:1012F000F389E02D80818F7D80830895CF93DF93E4
:10130000EC01888D8823C9F0EA89FB89808185FDFD
:1013100005C0A889B9898C9186FD0FC00FB607FC5E
:10132000F5CF808185FFF2CFA889B9898C9185FF9F
:10133000EDCFCE010E945D09E7CFDF91CF910895F7
:10134000CF92DF92FF920F931F93CF93DF931F9261
:10135000CDB7DEB76C0181E0D60158968C935897D3
:101360005B969C915B975C968C915C97981307C0F9
:101370005096ED91FC915197808185FD2EC0F6012C
:10138000038D10E00F5F1F4F0F731127F02EF60132
:10139000848DF81211C00FB607FCF9CFD601509614
:1013A000ED91FC915197808185FFF1CFC601698352
:1013B0000E945D096981EBCF838DE80FF11DE35A2F
:1013C000FF4F6083D6015B960C935B975296ED912D
:1013D000FC915397808180620CC0D6015696ED91A6
:1013E000FC91579760835096ED91FC9151978081C5
:1013F0008064808381E090E00F90DF91CF911F9116
:101400000F91FF90DF90CF900895BF92CF92DF921F
:10141000EF92FF92CF93DF93EC016A017B01B22E32
:10142000E889F98982E08083411581EE58076105DA
:101430007105A1F060E079E08DE390E0A7019601ED
:101440000E947C0F21503109410951095695479559
:1014500037952795211580E1380798F0E889F989B3
:10146000108260E874E88EE190E0A70196010E9486
:101470007C0F2150310941095109569547953795FF
:101480002795EC85FD853083EE85FF852083188EBA
:10149000EC89FD89B082EA89FB8980818061808343
:1014A000EA89FB89808188608083EA89FB89808161
:1014B00080688083EA89FB8980818F7D8083DF91CA
:1014C000CF91FF90EF90DF90CF90BF9008951F9243
:1014D0000F920FB60F9211242F938F939F93EF9338
:1014E000FF93E0915C02F0915D028081E0916202E5
:1014F000F091630282FD12C09081809165028F5F3E
:101500008F7320916602821751F0E0916502F0E03E
:10151000E45BFD4F958F8093650201C08081FF9150
:10152000EF919F918F912F910F900FBE0F901F9071
:1015300018951F920F920FB60F9211242F933F937D
:101540004F935F936F937F938F939F93AF93BF93CB
:10155000EF93FF938CE492E00E945D09FF91EF917D
:10156000BF91AF919F918F917F916F915F914F91BB
:101570003F912F910F900FBE0F901F9018958CE404
:1015800092E00E94220921E0892B09F420E0822FB9
:10159000089510924F0210924E0288EE93E0A0E060
:1015A000B0E08093500290935102A0935202B09306
:1015B000530286E191E090934D0280934C0285ECBA
:1015C00090E0909359028093580284EC90E09093BD
:1015D0005B0280935A0280EC90E090935D028093CE
:1015E0005C0281EC90E090935F0280935E0282EC5B
:1015F00090E0909361028093600286EC90E090937B
:101600006302809362021092650210926602109249
:10161000670210926802089508950E9426080E94A9
:101620000C0B0E948E00CFE4D9E00E94110120979C
:10163000E1F30E944F09F9CFCF92DF92EF92FF9230
:101640000F931F93CF93DF936C017A01EB01E60EAA
:10165000F71E00E010E0CE15DF0561F06991D601BC
:10166000ED91FC910190F081E02DC6010995080FE4
:10167000191FF1CFC801DF91CF911F910F91FF90FA
:10168000EF90DF90CF9008956115710581F0DB0137
:101690000D900020E9F7AD0141505109461B570B51
:1016A000DC01ED91FC910280F381E02D099480E052
:1016B00090E008950C94440BDC01ED91FC910190B5
:1016C000F081E02D099462E271E00C94440B0F93D9
:1016D0001F93CF93DF93EC010E94440B8C01CE014A
:1016E0000E94630B800F911FDF91CF911F910F918B
:1016F00008958F929F92AF92BF92CF92DF92EF9216
:10170000FF920F931F93CF93DF93CDB7DEB7A197CF
:101710000FB6F894DEBF0FBECDBF7C01C42EE52FFF
:10172000CB01D22E19A221E02D1510F02AE0D22EE5
:101730008E010F5D1F4F8D2C912CA12CB12C6C2D87
:101740007E2FA50194010E947C0F8C2DD29E8019C2
:101750001124015011098A3014F4805D01C0895CA4
:10176000F8018083211531054105510521F0C22E74
:10177000E32FCA01E4CFB801C7010E94440BA19630
:101780000FB6F894DEBF0FBECDBFDF91CF911F9192
:101790000F91FF90EF90DF90CF90BF90AF909F9010
:1017A0008F900895CF92DF92EF92FF920F931F9345
:1017B000CF93DF93EC016A017B012115310579F4A8
:1017C000E881F9810190F081E02D642FDF91CF91C4
:1017D0001F910F91FF90EF90DF90CF9009942A30E6
:1017E0003105E9F477FF1AC06DE20E945C0B8C01B1
:1017F00044275527BA014C195D096E097F092AE073
:10180000CE010E94790B800F911FDF91CF911F9124
:101810000F91FF90EF90DF90CF9008952AE0B701ED
:10182000A601CE01DF91CF911F910F91FF90EF9014
:10183000DF90CF900C94790B4F925F926F927F92D2
:101840008F929F92AF92BF92CF92DF92EF92FF92D0
:101850000F931F93CF93DF93EC016A017B01B22EAC
:101860009A01AB01C701B6010E94780F882319F0D5
:1018700065E271E027C026013701E89477F82FEF81
:101880003FEF4FE75FE7C301B2010E94780F81117C
:101890000DC02FEF3FEF4FE75FE7C301B2010E949A
:1018A0006F0D18161CF469E271E00CC02FEF3FEFCA
:1018B0004FE75FE4C701B6010E94110F1816ACF4A0
:1018C0006DE271E0CE01DF91CF911F910F91FF90FA
:1018D000EF90DF90CF90BF90AF909F908F907F90D0
:1018E0006F905F904F900C94440B2FEF3FEF4FE7BA
:1018F0005FECC701B6010E946F0D87FDE1CF20E0CC
:1019000030E0A901C701B6010E946F0D87FF0AC030
:101910006DE2CE010E945C0B8C01F7FAF094F7F8AF
:10192000F09402C000E010E0A12C60E070E080E0E4
:101930009FE3AB1441F020E030E040E251E40E942C
:10194000730DA394F6CF9B01AC01C701B6010E94B1
:101950000B0D6B017C010E94E00D2B013C010E94EC
:101960000C0E9B01AC01C701B6010E940A0D6B0170
:101970007C012AE0B301A201CE010E94790B080F7D
:10198000191FBB2039F061E371E0CE010E94440BC6
:10199000080F191F7B2C772041F120E030E040E256
:1019A00051E4C701B6010E94150F6B017C010E9432
:1019B000DB0D4B01AA2497FCA094BA2C2AE030E05E
:1019C000B501A401CE010E94D20B080F191FC50159
:1019D000B4010E940E0E9B01AC01C701B6010E942A
:1019E0000A0D6B017C017A94D6CFC801DF91CF91AB
:1019F0001F910F91FF90EF90DF90CF90BF90AF902D
:101A00009F908F907F906F905F904F9008950C946F
:101A10001C0C08955058BB27AA270ED0B1C1A2D1E3
:101A200030F0A7D120F031F49F3F11F41EF497C19C
:101A30000EF4E095E7FB64C1E92FB3D180F3BA1748
:101A4000620773078407950718F071F49EF5E2C1E9
:101A50000EF4E0950B2EBA2FA02D0B01B9019001C9
:101A60000C01CA01A0011124FF27591B99F0593F0D
:101A700050F4503E68F11A16F040A22F232F342F55
:101A80004427585FF3CF469537952795A795F040A3
:101A90005395C9F77EF41F16BA0B620B730B840BB8
:101AA000BAF09150A1F0FF0FBB1F661F771F881F70
:101AB000C2F70EC0BA0F621F731F841F48F48795C8
:101AC00077956795B795F7959E3F08F0B3CF9395B7
:101AD000880F08F09927EE0F979587950895ECD019
:101AE00008F481E008950CD04BC143D140F03AD1C5
:101AF00030F021F45F3F19F003C151118CC12FC1A7
:101B000050D198F39923C9F35523B1F3951B550B85
:101B1000BB27AA2762177307840738F09F5F5F4FC0
:101B2000220F331F441FAA1FA9F333D00E2E3AF001
:101B3000E0E830D091505040E695001CCAF729D01B
:101B4000FE2F27D0660F771F881FBB1F261737076A
:101B50004807AB07B0E809F0BB0B802DBF01FF279A
:101B600093585F4F2AF09E3F510568F0C9C053C19A
:101B70005F3FECF3983EDCF3869577956795B795D4
:101B8000F7959F5FC9F7880F911D9695879597F9EF
:101B90000895E1E0660F771F881FBB1F6217730768
:101BA0008407BA0720F0621B730B840BBA0BEE1F7D
:101BB00088F7E095089504D06894B1112CC1089578
:101BC000F8D088F09F5790F0B92F9927B751A0F01F
:101BD000D1F0660F771F881F991F1AF0BA95C9F7C1
:101BE00012C0B13081F016D1B1E0089513C1672F52
:101BF000782F8827B85F39F0B93FCCF38695779571
:101C00006795B395D9F73EF4909580957095619559
:101C10007F4F8F4F9F4F0895E89409C097FB3EF484
:101C200090958095709561957F4F8F4F9F4F992329
:101C3000A9F0F92F96E9BB279395F69587957795A7
:101C40006795B795F111F8CFFAF4BB0F11F460FF67
:101C50001BC06F5F7F4F8F4F9F4F16C0882311F0BF
:101C600096E911C0772321F09EE8872F762F05C0D3
:101C7000662371F096E8862F70E060E02AF09A956E
:101C8000660F771F881FDAF7880F9695879597F963
:101C90000895A9D080F09F3740F491110EF0BBC099
:101CA00060E070E080E89FEB089526F41B16611D4C
:101CB000711D811D2BC045C0990F0008550FAA0B3F
:101CC000E0E8FEEF16161706E807F907C0F012164F
:101CD0001306E407F50798F0621B730B840B950B52
:101CE00039F40A2661F0232B242B252B21F40895A7
:101CF0000A2609F4A140A6958FEF811D811D089544
:101D000097F99F6780E870E060E00895882371F498
:101D1000772321F09850872B762F07C0662311F484
:101D200099270DC09051862B70E060E02AF09A95BB
:101D3000660F771F881FDAF7880F9695879597F9B2
:101D400008959F3F31F0915020F4879577956795DE
:101D5000B795880F911D9695879597F908959FEFF0
:101D600080EC089500240A94161617061806090632
:101D7000089500240A941216130614060506089501
:101D8000092E0394000C11F4882352F0BB0F40F489
:101D9000BF2B11F460FF04C06F5F7F4F8F4F9F4FC9
:101DA000089557FD9058440F551F59F05F3F71F04B
:101DB0004795880F97FB991F61F09F3F79F08795B2
:101DC0000895121613061406551FF2CF4695F1DF3B
:101DD00008C0161617061806991FF1CF86957105CB
:101DE000610508940895E5DFA0F0BEE7B91788F40F
:101DF000BB279F3860F41616B11D672F782F8827F0
:101E0000985FF7CF869577956795B11D939596392D
:101E1000C8F30895E894BB2766277727CB0197F985
:101E200008954ADF08F48FEF08950BD0A9CF9ADF09
:101E300028F09FDF18F0952309F062CF90CF11248E
:101E4000EACFAFDFA0F3959FD1F3950F50E0551F78
:101E5000629FF001729FBB27F00DB11D639FAA27FF
:101E6000F00DB11DAA1F649F6627B00DA11D661F4E
:101E7000829F2227B00DA11D621F739FB00DA11D6F
:101E8000621F839FA00D611D221F749F3327A00D29
:101E9000611D231F849F600D211D822F762F6A2FC5
:101EA00011249F5750408AF0E1F088234AF0EE0F4A
:101EB000FF1FBB1F661F771F881F91505040A9F757
:101EC0009E3F510570F01CCFA6CF5F3FECF3983ECC
:101ED000DCF3869577956795B795F795E7959F5FBE
:101EE000C1F7FE2B880F911D9695879597F9089558
:101EF000E3DE880B990B0895A1E21A2EAA1BBB1BE7
:101F0000FD010DC0AA1FBB1FEE1FFF1FA217B307C5
:101F1000E407F50720F0A21BB30BE40BF50B661FDB
:101F2000771F881F991F1A9469F76095709580959F
:101F300090959B01AC01BD01CF010895EE0FFF1FED
:0C1F40000590F491E02D0994F894FFCF77
:101F4C00200000000000F204C5049A04A204B504A9
:101F5C00C40400000000A0091C0B22093B092D0938
:101F6C007E090D0A006E616E00696E66006F766602
:041F7C00002E000033
:00000001FF
