:100000000C9462000C948A000C948A000C948A0070
:100010000C948A000C948A000C948A000C948A0038
:100020000C948A000C948A000C948A000C948A0028
:100030000C948A000C948A000C948A000C948A0018
:100040000C943A020C948A000C9427050C945905E0
:100050000C948A000C948A000C948A000C948A00F8
:100060000C948A000C948A00000000080002010031
:100070000003040700000000000000000102040863
:100080001020408001020408102001020408102002
:10009000040404040404040402020202020203032E
:1000A00003030303000000002300260029000000D2
:1000B0000000250028002B0000000000240027007D
:1000C0002A00890511241FBECFEFD8E0DEBFCDBFC7
:1000D00011E0A0E0B1E0E6E2F4E102C005900D928B
:1000E000A232B107D9F721E0A2E2B1E001C01D922E
:1000F000A93DB207E1F710E0C4ECD0E004C02297BC
:10010000FE010E940D0AC23CD107C9F70E94CD052D
:100110000C94110A0C94000026E040E855E260E0DF
:1001200070E08CE391E00E94C50440E050E062E0A2
:1001300082E291E00C9402028F929F92AF92BF9262
:10014000CF92DF92EF92FF9280912B0190912C0140
:10015000019719F468EE73E002C060ED77E088273C
:1001600077FD8095982F0E94B30282E291E00E9471
:1001700022024B015C0182E291E00E942E026B019F
:100180007C0121E030E0B501A4018CE391E00E9404
:10019000C70762E171E08CE391E00E941A0621E05A
:1001A00030E0B701A6018CE391E00E94C70762E14D
:1001B00071E08CE391E0FF90EF90DF90CF90BF90E3
:1001C000AF909F908F900C9427060C949C00CF9337
:1001D000DF93EC010E948402685B7B4081099109F6
:1001E0006D877E878F87988BDF91CF9108952F92AF
:1001F0003F924F925F926F927F928F929F92AF92B7
:10020000BF92CF92DF92EF92FF920F931F93CF9303
:10021000DF931F92CDB7DEB71C010E948402F1016B
:1002200085849684A784B0882B013C01481859081E
:100230006A087B08218532852130310539F447EE83
:10024000842E43E0942EA12CB12C06C03FEC832ECB
:1002500037E0932EA12CB12C481459046A047B0476
:1002600008F4BCC0F101658776878787908B80E0B2
:1002700090E0A0ECBFE780839183A283B383848363
:100280009583A683B78360E080850E94830361E045
:10029000F10180850E944A03F101818592850197D1
:1002A00039F462E170E080E090E00E94B30204C0A3
:1002B00080E293E00E94DB0260E0F10180850E9411
:1002C0004A0361E0F10180850E9483032DEF922EA5
:1002D0000E949002762EF92DF1708F2EAF2EBB2446
:1002E000A7FCB0940E94900267196B3518F081E06A
:1002F00090E02FC0F101808569830E94B903698174
:100300008A159B0579F397FC07C0882029F0000F18
:10031000111F6F3108F00160FFE19F1639F08FE384
:10032000981205C0780100E010E001C068019394C4
:10033000E0E59E12CDCF6D2D7727AF2CB12C8E2D01
:100340008C0D860F8F0D90E08017910731F082E0C1
:1003500090E0F1019487838741C0F1018185928506
:10036000019779F480E090E00E94CC08F101648369
:10037000758386839783B50180E090E00E94CC0866
:1003800025C0B60180E090E00E94CC082DEC3CEC4A
:100390004CEC5DE30E948209F101648375838683DE
:1003A0009783C70197FF05C09F77EE24FF24E81AC3
:1003B000F90AB701882777FD8095982F0E94CE080B
:1003C0002DEC3CEC4CEC5DE30E948209F101608372
:1003D000718382839383F101148613860F90DF91DA
:1003E000CF911F910F91FF90EF90DF90CF90BF9032
:1003F000AF909F908F907F906F905F904F903F90C5
:100400002F9008950F931F93CF93DF93EC018A01F0
:1004100068875A8749870E94E700012B71F482E0C0
:1004200090E09A878987CE010E94F7008B859C8592
:100430008130910511F49A878987DF91CF911F91BF
:100440000F910895CF93DF93EC010E94F7006C8128
:100450007D818E819F81DF91CF910895CF93DF932E
:10046000EC010E94F700688179818A819B81DF918C
:10047000CF9108951F920F920FB60F9211242F93D0
:100480003F938F939F93AF93BF938091340190914B
:100490003501A0913601B09137013091330123E04D
:1004A000230F2D3720F40196A11DB11D05C026E8AC
:1004B000230F0296A11DB11D2093330180933401B7
:1004C00090933501A0933601B093370180913801A4
:1004D00090913901A0913A01B0913B010196A11D83
:1004E000B11D8093380190933901A0933A01B093E4
:1004F0003B01BF91AF919F918F913F912F910F90B1
:100500000FBE0F901F9018952FB7F894609134018B
:100510007091350180913601909137012FBF089578
:100520003FB7F8948091380190913901A0913A0138
:10053000B0913B0126B5A89B05C02F3F19F001964D
:10054000A11DB11D3FBF6627782F892F9A2F620FFB
:10055000711D811D911D42E0660F771F881F991F35
:100560004A95D1F70895CF92DF92EF92FF92CF9301
:10057000DF936B017C010E949002EB01C114D10456
:10058000E104F10489F00E94C9070E9490026C1BEB
:100590007D0B683E734090F381E0C81AD108E108F2
:1005A000F108C851DC4FEACFDF91CF91FF90EF9077
:1005B000DF90CF9008958230910538F0880F991F11
:1005C000880F991F05970197F1F70895789484B5DE
:1005D000826084BD84B5816084BD85B5826085BD3F
:1005E00085B5816085BDEEE6F0E080818160808325
:1005F000E1E8F0E010828081826080838081816008
:100600008083E0E8F0E0808181608083E1EBF0E0CE
:10061000808184608083E0EBF0E080818160808372
:10062000EAE7F0E08081846080838081826080835B
:100630008081816080838081806880831092C10086
:100640000895833081F028F4813099F08230A1F050
:1006500008958730A9F08830B9F08430D1F48091C2
:1006600080008F7D03C0809180008F778093800011
:10067000089584B58F7702C084B58F7D84BD0895B9
:100680008091B0008F7703C08091B0008F7D809300
:10069000B0000895CF93DF9390E0FC01E458FF4F42
:1006A0002491FC01E057FF4F8491882349F190E0A9
:1006B000880F991FFC01E854FF4FA591B491825512
:1006C0009F4FFC01C591D4919FB7611108C0F89468
:1006D0008C91209582238C93888182230AC062307A
:1006E00051F4F8948C91322F309583238C93888128
:1006F000822B888304C0F8948C91822B8C939FBFAB
:10070000DF91CF9108950F931F93CF93DF931F92A3
:10071000CDB7DEB7282F30E0F901E859FF4F8491BB
:10072000F901E458FF4F1491F901E057FF4F04918C
:100730000023C9F0882321F069830E942103698185
:10074000E02FF0E0EE0FFF1FE255FF4FA591B491AF
:100750009FB7F8948C91611103C01095812301C05B
:10076000812B8C939FBF0F90DF91CF911F910F91A1
:100770000895CF93DF93282F30E0F901E859FF4F18
:100780008491F901E458FF4FD491F901E057FF4FEC
:10079000C491CC2391F081110E942103EC2FF0E051
:1007A000EE0FFF1FEC55FF4FA591B4912C912D2317
:1007B00081E090E021F480E002C080E090E0DF91F1
:1007C000CF910895FC01818D228D90E0805C9F4F38
:1007D000821B91098F7399270895FC01918D828D59
:1007E000981731F0828DE80FF11D858D90E0089506
:1007F0008FEF9FEF0895FC01918D828D981761F026
:10080000828DDF01A80FB11D5D968C91928D9F5F47
:100810009F73928F90E008958FEF9FEF08958FE779
:1008200095E0892B49F080E090E0892B29F00E9427
:100830007F0581110C9400000895FC01848DDF0177
:10084000A80FB11DA35ABF4F2C91848D90E0019643
:100850008F739927848FA689B7892C93A089B18932
:100860008C9180648C93938D848D981306C002883C
:10087000F389E02D80818F7D80830895CF93DF936E
:10088000EC01888D8823C9F0EA89FB89808185FD88
:1008900005C0A889B9898C9186FD0FC00FB607FCE9
:1008A000F5CF808185FFF2CFA889B9898C9185FF2A
:1008B000EDCFCE010E941D04E7CFDF91CF910895C7
:1008C000CF92DF92FF920F931F93CF93DF931F92EC
:1008D000CDB7DEB76C0181E0D60158968C9358975E
:1008E0005B969C915B975C968C915C97981307C084
:1008F0005096ED91FC915197808185FD2EC0F601B7
:10090000038D10E00F5F1F4F0F731127F02EF601BC
:10091000848DF81211C00FB607FCF9CFD60150969E
:10092000ED91FC915197808185FFF1CFC6016983DC
:100930000E941D046981EBCF838DE80FF11DE35AFE
:10094000FF4F6083D6015B960C935B975296ED91B7
:10095000FC915397808180620CC0D6015696ED9130
:10096000FC91579760835096ED91FC91519780814F
:100970008064808381E090E00F90DF91CF911F91A0
:100980000F91FF90DF90CF900895BF92CF92DF92AA
:10099000EF92FF92CF93DF93EC016A017B01B22EBD
:1009A000E889F98982E08083411581EE5807610565
:1009B0007105A1F060E079E08DE390E0A701960178
:1009C0000E94E9092150310941095109569547957D
:1009D00037952795211580E1380798F0E889F9893E
:1009E000108260E874E88EE190E0A70196010E9411
:1009F000E909215031094109510956954795379523
:100A00002795EC85FD853083EE85FF852083188E44
:100A1000EC89FD89B082EA89FB89808180618083CD
:100A2000EA89FB89808188608083EA89FB898081EB
:100A300080688083EA89FB8980818F7D8083DF9154
:100A4000CF91FF90EF90DF90CF90BF9008951F92CD
:100A50000F920FB60F9211242F938F939F93EF93C2
:100A6000FF93E0914C01F0914D018081E0915201A2
:100A7000F091530182FD12C09081809155018F5FEA
:100A80008F7320915601821751F0E0915501F0E0EB
:100A9000E45CFE4F958F8093550101C08081FF91EA
:100AA000EF919F918F912F910F900FBE0F901F90FC
:100AB00018951F920F920FB60F9211242F933F9308
:100AC0004F935F936F937F938F939F93AF93BF9356
:100AD000EF93FF938CE391E00E941D04FF91EF914F
:100AE000BF91AF919F918F917F916F915F914F9146
:100AF0003F912F910F900FBE0F901F9018958CE390
:100B000091E00E94E20321E0892B09F420E0822F8A
:100B1000089510923F0110923E0188EE93E0A0E00C
:100B2000B0E08093400190934101A0934201B093C3
:100B3000430184E091E090933D0180933C0185EC7A
:100B400090E0909349018093480184EC90E0909369
:100B50004B0180934A0180EC90E090934D0180938B
:100B60004C0181EC90E090934F0180934E0182EC18
:100B700090E0909351018093500186EC90E0909327
:100B80005301809352011092550110925601109218
:100B9000570110925801089508950E94E6020E949C
:100BA000CC050E948C00CFE0D4E00E94E5002097A5
:100BB000E1F30E940F04F9CFCF92DF92EF92FF9200
:100BC0000F931F93CF93DF936C017A01EB01E60E35
:100BD000F71E00E010E0CE15DF0561F06991D60147
:100BE000ED91FC910190F081E02DC6010995080F6F
:100BF000191FF1CFC801DF91CF911F910F91FF9085
:100C0000EF90DF90CF9008956115710581F0DB01C1
:100C10000D900020E9F7AD0141505109461B570BDB
:100C2000DC01ED91FC910280F381E02D099480E0DC
:100C300090E008950C940406DC01ED91FC91019084
:100C4000F081E02D099460E171E00C9404060F93AB
:100C50001F93CF93DF93EC010E9404068C01CE0119
:100C60000E942306800F911FDF91CF911F910F915A
:100C700008958F929F92AF92BF92CF92DF92EF92A0
:100C8000FF920F931F93CF93DF93CDB7DEB7A1975A
:100C90000FB6F894DEBF0FBECDBF7C01C42EE52F8A
:100CA000CB01D22E19A221E02D1510F02AE0D22E70
:100CB0008E010F5D1F4F8D2C912CA12CB12C6C2D12
:100CC0007E2FA50194010E94E9098C2DD29E8019E6
:100CD0001124015011098A3014F4805D01C0895C2F
:100CE000F8018083211531054105510521F0C22EFF
:100CF000E32FCA01E4CFB801C7010E940406A19600
:100D00000FB6F894DEBF0FBECDBFDF91CF911F911C
:100D10000F91FF90EF90DF90CF90BF90AF909F909A
:100D20008F900895CF92DF92EF92FF920F931F93CF
:100D3000CF93DF93EC016A017B012115310579F432
:100D4000E881F9810190F081E02D642FDF91CF914E
:100D50001F910F91FF90EF90DF90CF9009942A3070
:100D60003105E9F477FF1AC06DE20E941C068C0180
:100D700044275527BA014C195D096E097F092AE0FD
:100D8000CE010E943906800F911FDF91CF911F91F4
:100D90000F91FF90EF90DF90CF9008952AE0B70178
:100DA000A601CE01DF91CF911F910F91FF90EF909F
:100DB000DF90CF900C9439064F925F926F927F92A2
:100DC0008F929F92AF92BF92CF92DF92EF92FF925B
:100DD0000F931F93CF93DF93EC016A017B01B22E37
:100DE0009A01AB01C701B6010E94E509882319F0F9
:100DF00063E171E027C026013701E89477F82FEF0F
:100E00003FEF4FE75FE7C301B2010E94E50981119F
:100E10000DC02FEF3FEF4FE75FE7C301B2010E9424
:100E20002F0818161CF467E171E00CC02FEF3FEF9C
:100E30004FE75FE4C701B6010E947E091816ACF4C3
:100E40006BE171E0CE01DF91CF911F910F91FF9087
:100E5000EF90DF90CF90BF90AF909F908F907F905A
:100E60006F905F904F900C9404062FEF3FEF4FE789
:100E70005FECC701B6010E942F0887FDE1CF20E09B
:100E800030E0A901C701B6010E942F0887FF0AC000
:100E90006DE2CE010E941C068C01F7FAF094F7F87F
:100EA000F09402C000E010E0A12C60E070E080E06F
:100EB0009FE3AB1441F020E030E040E251E40E94B7
:100EC0003308A394F6CF9B01AC01C701B6010E9481
:100ED000CB076B017C010E94A0082B013C010E9402
:100EE000CC089B01AC01C701B6010E94CA076B0187
:100EF0007C012AE0B301A201CE010E943906080F4D
:100F0000191FBB2039F06FE171E0CE010E94040689
:100F1000080F191F7B2C772041F120E030E040E2E0
:100F200051E4C701B6010E9482096B017C010E9455
:100F30009B084B01AA2497FCA094BA2C2AE030E02D
:100F4000B501A401CE010E949206080F191FC50128
:100F5000B4010E94CE089B01AC01C701B6010E94FA
:100F6000CA076B017C017A94D6CFC801DF91CF917B
:100F70001F910F91FF90EF90DF90CF90BF90AF90B7
:100F80009F908F907F906F905F904F9008950C94FA
:100F9000DC0608955058BB27AA270ED075C166D12C
:100FA00030F06BD120F031F49F3F11F41EF45BC19F
:100FB0000EF4E095E7FB51C1E92F77D180F3BA1722
:100FC000620773078407950718F071F49EF58FC1C7
:100FD0000EF4E0950B2EBA2FA02D0B01B901900154
:100FE0000C01CA01A0011124FF27591B99F0593F98
:100FF00050F4503E68F11A16F040A22F232F342FE0
:101000004427585FF3CF469537952795A795F0402D
:101010005395C9F77EF41F16BA0B620B730B840B42
:10102000BAF09150A1F0FF0FBB1F661F771F881FFA
:10103000C2F70EC0BA0F621F731F841F48F4879552
:1010400077956795B795F7959E3F08F0B3CF939541
:10105000880F08F09927EE0F979587950895D9D0B6
:1010600008F481E008950CD00FC107D140F0FED004
:1010700030F021F45F3F19F0F0C0511139C1F3C0D5
:1010800014D198F39923C9F35523B1F3951B550B4C
:10109000BB27AA2762177307840738F09F5F5F4F4B
:1010A000220F331F441FAA1FA9F333D00E2E3AF08C
:1010B000E0E830D091505040E695001CCAF729D0A6
:1010C000FE2F27D0660F771F881FBB1F26173707F5
:1010D0004807AB07B0E809F0BB0B802DBF01FF2725
:1010E00093585F4F2AF09E3F510568F0B6C000C18B
:1010F0005F3FECF3983EDCF3869577956795B7955F
:10110000F7959F5FC9F7880F911D9695879597F979
:101110000895E1E0660F771F881FBB1F62177307F2
:101120008407BA0720F0621B730B840BBA0BEE1F07
:1011300088F7E095089504D06894B111D9C0089556
:10114000BCD088F09F5790F0B92F9927B751A0F0E5
:10115000D1F0660F771F881F991F1AF0BA95C9F74B
:1011600012C0B13081F0C3D0B1E00895C0C0672F84
:10117000782F8827B85F39F0B93FCCF386957795FB
:101180006795B395D9F73EF49095809570956195E4
:101190007F4F8F4F9F4F0895E89409C097FB3EF40F
:1011A00090958095709561957F4F8F4F9F4F9923B4
:1011B000A9F0F92F96E9BB279395F6958795779532
:1011C0006795B795F111F8CFFAF4BB0F11F460FFF2
:1011D0001BC06F5F7F4F8F4F9F4F16C0882311F04A
:1011E00096E911C0772321F09EE8872F762F05C05E
:1011F000662371F096E8862F70E060E02AF09A95F9
:10120000660F771F881FDAF7880F9695879597F9ED
:101210000895990F0008550FAA0BE0E8FEEF161687
:101220001706E807F907C0F012161306E407F507DA
:1012300098F0621B730B840B950B39F40A2661F04E
:10124000232B242B252B21F408950A2609F4A140F1
:10125000A6958FEF811D811D089597F99F6780E8FE
:1012600070E060E008959FEF80EC089500240A94F8
:101270001616170618060906089500240A94121671
:101280001306140605060895092E0394000C11F4A4
:10129000882352F0BB0F40F4BF2B11F460FF04C051
:1012A0006F5F7F4F8F4F9F4F089557FD9058440FAA
:1012B000551F59F05F3F71F04795880F97FB991FB5
:1012C00061F09F3F79F08795089512161306140672
:1012D000551FF2CF4695F1DF08C0161617061806FF
:1012E000991FF1CF86957105610508940895E894DA
:1012F000BB2766277727CB0197F908958ADF08F483
:101300008FEF08950BD0C0CFB1DF28F0B6DF18F013
:10131000952309F0A2CFA7CF1124EACFC6DFA0F30F
:10132000959FD1F3950F50E0551F629FF001729F7A
:10133000BB27F00DB11D639FAA27F00DB11DAA1F99
:10134000649F6627B00DA11D661F829F2227B00DE6
:10135000A11D621F739FB00DA11D621F839FA00D71
:10136000611D221F749F3327A00D611D231F849FC1
:10137000600D211D822F762F6A2F11249F57504018
:101380008AF0E1F088234AF0EE0FFF1FBB1F661FB3
:10139000771F881F91505040A9F79E3F510570F06C
:1013A0005CCFA6CF5F3FECF3983EDCF38695779554
:1013B0006795B795F795E7959F5FC1F7FE2B880F67
:1013C000911D9695879597F9089523DF880B990BC2
:1013D0000895A1E21A2EAA1BBB1BFD010DC0AA1F76
:1013E000BB1FEE1FFF1FA217B307E407F50720F08E
:1013F000A21BB30BE40BF50B661F771F881F991F09
:101400001A9469F760957095809590959B01AC0151
:10141000BD01CF010895EE0FFF1F0590F491E02D5F
:061420000994F894FFCFCF
:10142600000000006004DC05E203FB03ED033E045C
:101436000D0A006E616E00696E66006F7666002E9C
:021446000000A4
:00000001FF
